:03000000020DFFEF
:0C0DFF00787FE4F6D8FD7581CD020E4629
:100C5500083C804020100804020108330000000011
:100C65000000000008440000000000000000082506
:100C75000000000000000000086E000000000000F9
:100C85000000084C3C4295A1A195423C08623C42BB
:100C9500A59191A5423C08547E8171F67E81817EA5
:100CA50008B6000000000000000008BE00000000BB
:100CB5000000000008C60000000000000000204001
:100CC50076000000000000000000000000000000A9
:100CD500000000000000000000000000000000000F
:100CE50000000000000000000000000000000000FF
:100CF50000000000000000000000000000000000EF
:100D0500000260003FC102C1000231000302210060
:100D150000013B00025E0000025C0001026A000067
:0E0D250002230000026C0000022D002DC1010F
:1008000012107A7C007D08120B808C088D09750A05
:1008100000750B01E4F50CF5B0E5B06480601BE4F5
:10082000F50DAF0C120EE5050DE50DC3940F40F26A
:100830000532E53270E3053180DF0532E5327002C2
:10084000053112107A7C007D08120B808C088D090E
:10085000AF09743C2FF8E6FE74332FF8A606120F8A
:100860008BD2017B007A00796E12101EE5224521A1
:100870007014AF0974332FF8E6FE74B62FF8A6068D
:1008800085086A85096BD3E5329420E5316480944C
:10089000CE40067531007532017B007A007908126E
:1008A0000FC4E530B52207E52FB52102C200C3E52C
:1008B000229401E521648094804014AF0974332FA1
:1008C000F8E6FE74C62FF8A60685086C85096D85C6
:1008D000212F85223075110075120075130A7B00D7
:1008E0007A007908120A0F7876A60B121060D3E509
:1008F000229400E52164809480500302099930001D
:100900003CE52265307004E521652F6030AF6B74E3
:10091000252FF8C000E6FE74B62FF8EE46D000F69C
:10092000AF6D74252FF8C000E6FE74C62FF8EE46B2
:10093000D000F6055DE55D7060055C805CE52265D4
:10094000307004E521652F7050AF6B74B62FF8E658
:10095000FE74BE2FF8A606856A23856B24120D341B
:10096000AF6D74252FF8C000E6FE74C62FF8EE4672
:10097000D000F6AF6B74252FF8C000E6FE74B62FDA
:10098000F8EE46D000F6AF2474252FF8C000E6FE3E
:1009900074BE2FF8EE66D000F620002AE4FFFE7445
:1009A000332509F8E6FD74252FF8E65DB5050CE55D
:1009B00009B50707E508B50602D2020FBF00010E10
:1009C000EF64084E70D9120FF5C3E5229561E5601A
:1009D0006480F8E521648098400685602185612265
:1009E000E4F50DC3E50D952EE52D6480F87480982F
:1009F00050127B007A00790A120E8BAF0C120EE5B2
:0F0A0000050D80DF0532E5327002053102086115
:06107A007B007A007931D1
:0D108000120BB6FFAEF0120F80120F3E22D1
:06101E008B118A128913F8
:10102400E4FFFDFCAB11AA12A9138D828C83EF128D
:0D1034000B5E0DBD00010CED64084C70E773
:01104100228C
:100E8B00AFB0EF14601914602424FE602D24FC60B5
:100E9B003824087044120BB6FFE5F08FF080371240
:100EAB000BB6640145F06031E4F5F08029120BB606
:100EBB0045F06025E475F001801C120BB664034508
:100ECB00F06016E475F002800D120BB6640245F06B
:0A0EDB006007E475F003120BE1223A
:060A0F008B0E8A0F891016
:100A1500E4F514F515F516F517120BB6FBAAF02437
:100A250001FFE43AFE7C007D08120B808C188D19BD
:100A3500EB24FFFFEA34FFFE7C007D08120B808C5F
:100A45001A8D1BE51BB4FF0BE51AB4FF06751A00DA
:100A5500751B07E519640845187004F518F519ABF9
:100A650011AA12A913120BB6FDACF04C701EAB0EF9
:100A7500AA0FA910120BB6FE2433F8E6FF78010879
:100A8500800103D8FDFF74332EF8A607ED64014CF1
:100A9500701EAB0EAA0FA910120BB6FE2433F8E692
:100AA500FF780108800123D8FDFF74332EF8A607CF
:100AB500AB11AA12A913120BB6640245F07024AB50
:100AC5000EAA0FA910120BB6FF2433F8E6FE7433F5
:100AD5002519F8A60674332FF8A617E5188519F019
:100AE500120BE1AB11AA12A913120BB6640345F060
:100AF5007024AB0EAA0FA910120BB6FF2433F8E62B
:100B0500FE7433251BF8A60674332FF8A617E51ACD
:100B1500851BF0120BE1AB0EAA0FA910120BB6FF45
:100B2500AEF02433F8E6B53B2FE55FB5072AE55E61
:100B3500B506250522E52270020521D200E52E1510
:100B45002E7002152DC3E52E9405E52D6480948045
:080B55005006752D00752E05F8
:010B5D002275
:100F8B007B007A00794412101E0532E5327002059F
:100F9B003112107A7C007D08120B80743C2DF8E620
:100FAB00F53B0532E5327002053112107A7C007D7B
:090FBB0008120B808C5E8D5F2290
:100FC4008B0E8A0F8910120BB6FFAEF02433F8E6AD
:100FD400B53B16E55FB50711E55EB5060C120F8B40
:100FE400AB0EAA0FA910020FC47444255FF8A63BE8
:010FF40022DA
:100FF500E4FFFE74332FF8E6FD74442FF8E64DFD4B
:1010050074252FF8E64DFD746E2FF8A6050FBF0069
:08101500010EEF64084E70DBD0
:01101D0022B0
:020EE5008F0E6E
:100EE7007510FEE4F50FC3E5229561E5606480F8AF
:100EF700E5216480984004744C80103002047462C9
:100F0700800920010474548002746E250EF8E6F5FA
:100F1700908510A07F027E0012104275A0FFAF10CF
:100F27007801EF08800123D8FDF510050E050FE5C0
:060F37000FC3940840B056
:010F3D002291
:10104200D3EF9400EE940040147D787C00ED1D7087
:0D105200011CED4C70F7EF1F70E61E80E3EF
:01105F00226E
:101060007F3F7E0074752FF8E6FD74762FF8A60595
:09107000EF1F70011EEF4E70EB42
:011079002254
:100D3400E4F50EF50FFBFAE56B2401FFE4356AFEDA
:100D44007C007D08120B808D828C83E56B24FFFF71
:100D5400E56A34FFFE7C007D08120B80BCFF07BDF2
:100D6400FF047C007D07E582640845837004F583F5
:100D7400F582A95D747629F8E67017AE6B74B62E09
:100D8400F8E6FF780108800103D8FDFF74B62EF859
:100D9400A607747629F8E6B40117AE6B74B62EF87C
:100DA400E6FF780108800123D8FDFF74B62EF8A66B
:100DB40007747629F8E6B4021EA96B74B629F8E61E
:100DC400FFAE8274B62EF8A607AF0374B629F8A650
:100DD4000785836A85826B7476255DF8E6B4031A09
:100DE400AF6B74B62FF8E6FE74B62DF8A606AE0304
:0A0DF40074B62FF8A6068C6A8D6B0A
:010DFE0022D2
:100E0B00020800E493A3F8E493A34003F68001F2F5
:100E1B0008DFF48029E493A3F85407240CC8C333E8
:100E2B00C4540F4420C8834004F456800146F6DFB7
:100E3B00E4800B0102040810204080900C55E47EE6
:100E4B00019360BCA3FF543F30E509541FFEE493AC
:100E5B00A360010ECF54C025E060A840B8E493A373
:100E6B00FAE493A3F8E493A3C8C582C8CAC583CA9E
:100E7B00F0A3C8C582C8CAC583CADFE9DEE780BE56
:010D330000BF
:100B5E00F8BB010DE58229F582E5833AF583E8F0CD
:100B6E00225006E92582C8F622BBFE05E92582C879
:020B7E00F22261
:100B8000C2D5EC30E709B2D5E4C39DFDE49CFCEE90
:100B900030E715B2D5E4C39FFFE49EFE120C00C3FC
:100BA000E49DFDE49CFC8003120C0030D507C3E4F7
:060BB0009FFFE49EFE22FF
:100BB600BB010A89828A83E0F5F0A3E0225006870A
:100BC600F009E71922BBFE07E3F5F009E3192289CC
:0B0BD600828A83E493F5F074019322FF
:100BE100BB010A89828A83F0E5F0A3F0225006F75F
:0F0BF10009A7F01922BBFE06F3E5F009F319225C
:100F3E00AC1CAD1DAE1EAF1F7810EC4D4E4F7004A5
:100F4E007CA57DA5C3EC13FCED13FDEE13FEEF1394
:100F5E00FF5010EC64CCFCED644CFDEE644EFEEFE5
:100F6E0064CEFFD8DF8C1C8D1D8E1E8F1FEE547F1E
:0D0F7E00FE228E1C8F1D74A5F51EF51F228E
:100C0000BC000BBE0029EF8DF084FFADF022E4CCD8
:100C1000F875F008EF2FFFEE33FEEC33FCEE9DECA1
:100C2000984005FCEE9DFE0FD5F0E9E4CEFD22EDE7
:100C3000F8F5F0EE8420D21CFEADF075F008EF2F31
:100C4000FFED33FD4007985006D5F0F222C398FD22
:050C50000FD5F0EA22BF
:00000001FF
